:2000000054C0EBC308C2F6C36BC06AC069C068C067C066C065C064C063C062C00DC4040342
:20002000090422037700770077002E0072006500630075007200730069006F006E002E00F3
:200040006A00700010035500530042002D003200330032001201100102000008C016E1051B
:20006000000101020001090243000201008032090400000102020100052400100104240201
:200080000205240600010524010301070583030800FF09040100020A00000007050102023C
:2000A0000000070581020800000011241FBECFE5D2E0DEBFCDBF10E0A0E6B0E0E0EEFBE059
:2000C00002C005900D92AC36B107D9F711E0ACE6B0E001C01D92A034B107E1F7F5D47EC5CD
:2000E0008FCFAC9A8BB780628BBF8BE480937D008093A8008AE580937C008093A7000895DF
:200100001F93CF93DF93DC01162FEA01888184FF05C0898198E88927898302C08AE5888379
:20012000AE014E5F5F4F212FFA018D91819321501216DCF3CA01612F57D11C5F1883DF91C7
:20014000CF911F91089547EA50E0DADF08954CE750E0D6DF08951F93CF93DF9360918D0082
:20016000635067FDB3C080918A00CCE0D0E0C81BD109CF56DF4F80918900803118F4CE01C8
:2001800087D49EC08D3209F08BC0683009F098C083EC809371008AE58093600010926D00D6
:2001A0008881807621F0CE013ED4282F66C09A8110927A008981882321F410927B0022E0B1
:2001C00055C0853019F490938E004FC08630B9F58B81813041F484E590E090938C00809397
:2001E0008B0022E128C0823021F4CE01EBD3282F22C08330F9F48A81882341F48EE190E092
:2002000090938C0080938B0024E015C0813041F482E290E090938C0080938B0022E20BC0E2
:20022000823041F484E490E090938C0080938B0020E101C020E080E480936D001EC0883076
:2002400021F421E080E990E013C0893019F4909390000BC08A3011F421E008C08B3029F438
:200260008BE480937D008093A80020E08AE790E090938C0080938B0009C02F3F39F4888129
:2002800087FD2E8180E880936D0006C08F81882319F48E81821708F0822F8093610010C020
:2002A00080916D0087FF0CC0CE0152D48F3F21F48EE18093600004C0882311F01092610041
:2002C00080918D00181614F410928D008091600084FF58C0809161008F3F09F453C0182F78
:2002E000893008F018E0811B809361008091710098E8892780937100112391F180916D00DB
:2003000087FF08C082E790E0612FB3D3182F893098F526C020918B0030918C0086FF0DC052
:20032000A2E7B0E080E090E0F901E80FF91FE491ED9301961817C1F708C0912FD901E2E72D
:20034000F0E08D9181939150E1F71150812F90E01F5F0196820F931F90938C0080938B00BC
:2003600082E790E0612F40D0612F6C5F6C3041F08FEF8093610004C08FEF809361006EE1E5
:200380006093600094E186B3887131F49150D9F710928E001092880010E0992309F411E099
:2003A00080916C00811739F0112319F4F894A8D1789410936C00DF91CF911F910895A82FAA
:2003C000B92F80E090E041E050EA609530E009C02D9182279795879510F084279527305E98
:2003E000C8F36F5FA8F30895EADF8D939D930895A6E088279927AA9569F00197E1F3B39941
:20040000FCCFB39BFECF81E09927A6B3019611F0A871D9F70895CF93CFB7CF93C395B39B6E
:20042000E9F7B39B0BC0B39B09C0B39B07C0B39B05C0B39B03C0B39B01C0D8C00F92DF93B9
:20044000C0918A00DD27CF56DF4F012EB39B03C0DF910F90E6CF2F930F931F934F932FEF50
:200460004F6F06B303FB20F95F933F9350E03BE065C016B30126502953FDC89556B3012773
:2004800003FB25F92F7306B3B1F05027102713FB26F906B22230F0F000C016B3012703FBD0
:2004A00027F90126502906B22430E8F54F77206816B30000F6CF50274F7D206206B2102FFB
:2004C000000000C006B300265029102713FB26F906B2E2CF4F7B06B3206400C0DACF0126A0
:2004E0005029187106B269F14E7F2160012F16B328C0002650294D7F06B22260102F29C0EC
:20050000012650294B7F06B22460012F2DC016B301265029477F2860000006B22EC04F7EEE
:2005200006B3206130C0422706B3499300265029102706B24FEF13FB20F9297F16B379F2C4
:20054000187159F10126502906B2012703FB21F9237F06B371F2002650293150D0F006B2DA
:20056000102713FB22F9277E16B351F201265029012703FB06B223F92F7C49F2000006B331
:20058000102713FB24F90026502906B22F7939F270CF10E21ABF00271CC03B503195C31B93
:2005A000D04010E21ABF0881033C21F10B3411F1209188001981110F1213EDCF4A81441F43
:2005C000093669F10D3211F0013E29F74F7009F0042F00938F003F915F914F911F910F91E6
:2005E0002F91DF910F90CAB7C5FD18CFCF91CFBFCF91189520918F00222369F310918D00F8
:200600001123D1F53430D2F130938D002093890010918A003BE0311B30938A002FC00091CE
:200620008D0001304CF50AE54F7049F43091600034FD25C000936000C1E7D0E024C04330F7
:2006400049F030917C0034FD1AC000937C00CDE7D0E019C03091A70034FD11C00093A70029
:20066000C8EAD0E010C0052710E000C021C0052710E0C89508BB14C03AE501C032ED032E4B
:20068000C0E0D0E032E017B31861C39A08B317BB58E120E84FEF20FF052708BB27951795D6
:2006A0001C3F28F700004552B0F720FF0527279508BB17951C3FB8F629913A9561F7077E9D
:2006C00010918E00110F08BBC250D04011F01093880010E21ABF086017B3177E402F477EF4
:2006E00054E05A95F1F708BB17BB48BB74CF80E090E05ED28F3F11F481B78C5F81BF089541
:20070000CF92DF92EF92FF920F931F93CF93DF93E1B66EDE6C0188E981BF6ADE84539940D4
:2007200014F400E801C000E080E4F82EC0E0D0E0102F1F0D11BF5CDE9C0189E0243338073D
:200740000CF0102FF6942196C730D10511F0012FEFCF2453394037FF03C0309521953F4F6F
:20076000C6018453994097FF03C0909581959F4F8217930714F4E1BE27C0125011BF1E5F10
:200780007901C12FD0E0229610C032DE8453994097FF03C0909581959F4F8E159F0514F426
:2007A00011B77C0181B78F5F81BF81B790E0C817D9075CF711BF80E090E0FAD1811721F0C0
:2007C00080E090E0612FFCD1DF91CF911F910F91FF90EF90DF90CF900895B299189501BB9F
:2007E00005B50FBD09E00DBD07E000BF00E20BBF01B3189501BB0FB702BB0DB50A950DBDA3
:2008000079F00BB50695B29900680BBD13BB0FB51EB5011B0FBD13B302B30FBF01B31895A2
:2008200000BF04BD0BB50DBB00E40ABF00E60BBF02B30FBF01B3189501BBF09907C00BE474
:200840000EB90EBB08B50FB901B3189500E40EB900E003BF01B31895881F9795881F9795CE
:20086000881F9795881F9795881F9795881F9795881F9795881F9795892F08959C0181E033
:2008800080BD80E888B9B99ABA988BB78F7B8BBF1ABC13BE10BE80EE8EB984E58DB98FEFE0
:2008A0008FB9B9017695679580E090E06C5E70418C4F9F4F40E050E059D121502EBD8EB502
:2008C00089BD1DBC8EB590E001969595879595958795819585BD95B58EB5891718F08EB553
:2008E0008F5F85BD82E08ABD81E084BD90E499BF85B78C7F826085BF9ABF8BB780648BBF7B
:2009000010923E011092BB0010923C0110923D01089584B5882379F49091BB00983058F4FC
:200920008DB3E92FF0E0ED54FF4F80839F5F9093BB0081E084BD80917C0084FF12C06091AC
:20094000BB00662321F480913F01882351F083EB90E0FDDB8091BB00887080933F01109292
:20096000BB0083B7882369F5E0913E0180913D018E1739F1F0E0E454FF4F80816DDF209157
:200980003E012F5F2F7720933E0112BE9BE49EB91EBA982F9295907F9F6098BD8695F8947C
:2009A0008FB983E083BF789480918D0087FF09C080913D018095820F8F77823010F0109202
:2009C0008D000895FC018381813049F484E590E090938C0080938B0080915400089586E66A
:2009E00090E090938C0080938B0083E40895DF93CF9300D0CDB7DEB7282F0EC01A8219821D
:200A000005C089819A8101969A83898389819A818E5A9340B1F72150222381F70F900F9038
:200A2000CF91DF910895FC012081822F80768032F1F49181892F8052823010F48FEF089500
:200A4000923271F488B39281909591708E7F982B98BB80916E00882319F482E080936E00BC
:200A600027FD05C081E080933F0180E0089580E00895FC0180916F008083809170008183DA
:200A8000128213821482158288E0868387E00895DC010BC0E92FF0E0E454FF4F8D91808354
:200AA0009F5F9F7790933D01615090913D01662389F780913E018150891B8F77823018F41F
:200AC0008FEF80938D0008952EE088E190E00FB6F894A89581BD0FBE21BD09DE87EE88BB5E
:200AE00088E187BBA89584EC99E02CE931E0F9013197F1F70197D9F717BA8FEF88BB80ECEF
:200B000092E19093700080936F00B8DEB89AE9DA10926E0010923F017894A8951CDBF9DE99
:200B200090916E009923C9F38091A70084FFF5CF923021F482E690E068E003C08AE690E015
:200B400062E001DB80916E00815080936E00E5CFFC01808180936F008181809370008091DC
:200B60006F00909170008ADE81E00895A1E21A2EAA1BBB1BFD010DC0AA1FBB1FEE1FFF1F10
:200B8000A217B307E407F50720F0A21BB30BE40BF50B661F771F881F991F1A9469F7609504
:200BA0007095809590959B01AC01BD01CF010895E199FECF9FBB8EBBE09A99278DB3089581
:200BC000262FE199FECF1CBA9FBB8EBB2DBB0FB6F894E29AE19A0FBE01960895F894FFCF75
:0C0BE0005AFFA1200000000002000300EA
:00000001FF
